:100000000C9434000C943E000C943E000C943E0082
:100010000C943E000C943E000C943E000C943E0068
:100020000C943E000C943E000C943E000C943E0058
:100030000C943E000C943E000C943E000C943E0048
:100040000C943E000C943E000C943E000C943E0038
:100050000C943E000C943E000C943E000C943E0028
:100060000C943E000C943E0011241FBECFEFD8E04C
:10007000DEBFCDBF0E9440000C9458000C940000DD
:100080008FEF84B980E285B92FE33DE043E0215052
:1000900030404040E1F700C0000015B82FE33DE0DC
:1000A00043E0215030404040E1F700C00000EBCF7A
:0400B000F894FFCFF2
:00000001FF
